{
  "_format": "hh-sol-artifact-1",
  "contractName": "Address",
  "sourceName": "contracts/Address.sol",
  "abi": [
    {
      "inputs": [],
      "name": "getAddressBalance",
      "outputs": [
        {
          "internalType": "address",
          "name": "",
          "type": "address"
        },
        {
          "internalType": "uint256",
          "name": "",
          "type": "uint256"
        }
      ],
      "stateMutability": "view",
      "type": "function"
    }
  ],
  "bytecode": "0x6080604052348015600f57600080fd5b5061011b8061001f6000396000f3fe6080604052348015600f57600080fd5b506004361060285760003560e01c806375eb2ad114602d575b600080fd5b60336048565b604051603f92919060c0565b60405180910390f35b600080333373ffffffffffffffffffffffffffffffffffffffff1631915091509091565b600073ffffffffffffffffffffffffffffffffffffffff82169050919050565b6000609582606c565b9050919050565b60a381608c565b82525050565b6000819050919050565b60ba8160a9565b82525050565b600060408201905060d36000830185609c565b60de602083018460b3565b939250505056fea2646970667358221220c26b352b2d9d41f6cfd10eece2ba68e65d458739019ad05421994cb941527b9764736f6c634300081c0033",
  "linkReferences": {},
  "deployedLinkReferences": {}
}