{
  "_format": "hh-sol-artifact-1",
  "contractName": "Address",
  "sourceName": "contracts/Address.sol",
  "abi": [
    {
      "inputs": [],
      "stateMutability": "nonpayable",
      "type": "constructor"
    },
    {
      "inputs": [
        {
          "internalType": "address",
          "name": "owner",
          "type": "address"
        }
      ],
      "name": "Ownership",
      "type": "error"
    },
    {
      "inputs": [],
      "name": "getOwner",
      "outputs": [
        {
          "internalType": "address",
          "name": "",
          "type": "address"
        }
      ],
      "stateMutability": "view",
      "type": "function"
    },
    {
      "inputs": [],
      "name": "owner",
      "outputs": [
        {
          "internalType": "address payable",
          "name": "",
          "type": "address"
        }
      ],
      "stateMutability": "view",
      "type": "function"
    }
  ],
  "bytecode": "0x6080604052348015600f57600080fd5b50336000806101000a81548173ffffffffffffffffffffffffffffffffffffffff021916908373ffffffffffffffffffffffffffffffffffffffff1602179055506102bc8061005f6000396000f3fe608060405234801561001057600080fd5b50600436106100365760003560e01c8063893d20e81461003b5780638da5cb5b14610059575b600080fd5b610043610077565b60405161005091906101b5565b60405180910390f35b610061610150565b60405161006e91906101f1565b60405180910390f35b60008060009054906101000a900473ffffffffffffffffffffffffffffffffffffffff1673ffffffffffffffffffffffffffffffffffffffff163373ffffffffffffffffffffffffffffffffffffffff161461012a5760008054906101000a900473ffffffffffffffffffffffffffffffffffffffff166040517fed9f74f3000000000000000000000000000000000000000000000000000000008152600401610121919061026b565b60405180910390fd5b60008054906101000a900473ffffffffffffffffffffffffffffffffffffffff16905090565b60008054906101000a900473ffffffffffffffffffffffffffffffffffffffff1681565b600073ffffffffffffffffffffffffffffffffffffffff82169050919050565b600061019f82610174565b9050919050565b6101af81610194565b82525050565b60006020820190506101ca60008301846101a6565b92915050565b60006101db82610174565b9050919050565b6101eb816101d0565b82525050565b600060208201905061020660008301846101e2565b92915050565b6000819050919050565b600061023161022c61022784610174565b61020c565b610174565b9050919050565b600061024382610216565b9050919050565b600061025582610238565b9050919050565b6102658161024a565b82525050565b6000602082019050610280600083018461025c565b9291505056fea264697066735822122043a478061b9e8f5e43538cda9ab2c252417bb866d5f5be52316745b1ffd9c13864736f6c634300081c0033",
  "linkReferences": {},
  "deployedLinkReferences": {}
}