{
  "_format": "hh-sol-artifact-1",
  "contractName": "Address",
  "sourceName": "contracts/Address.sol",
  "abi": [
    {
      "inputs": [],
      "stateMutability": "nonpayable",
      "type": "constructor"
    },
    {
      "inputs": [
        {
          "internalType": "address",
          "name": "owner",
          "type": "address"
        }
      ],
      "name": "OwnershipErr",
      "type": "error"
    },
    {
      "inputs": [],
      "name": "getAddressBalance",
      "outputs": [
        {
          "internalType": "address",
          "name": "",
          "type": "address"
        },
        {
          "internalType": "uint256",
          "name": "",
          "type": "uint256"
        }
      ],
      "stateMutability": "view",
      "type": "function"
    },
    {
      "inputs": [],
      "name": "owner",
      "outputs": [
        {
          "internalType": "address payable",
          "name": "",
          "type": "address"
        }
      ],
      "stateMutability": "view",
      "type": "function"
    }
  ],
  "bytecode": "0x6080604052348015600f57600080fd5b50336000806101000a81548173ffffffffffffffffffffffffffffffffffffffff021916908373ffffffffffffffffffffffffffffffffffffffff16021790555061031f8061005f6000396000f3fe608060405234801561001057600080fd5b50600436106100365760003560e01c806375eb2ad11461003b5780638da5cb5b1461005a575b600080fd5b610043610078565b60405161005192919061020a565b60405180910390f35b61006261018c565b60405161006f9190610254565b60405180910390f35b60008060008054906101000a900473ffffffffffffffffffffffffffffffffffffffff1673ffffffffffffffffffffffffffffffffffffffff163373ffffffffffffffffffffffffffffffffffffffff161461012b5760008054906101000a900473ffffffffffffffffffffffffffffffffffffffff166040517f7618210700000000000000000000000000000000000000000000000000000000815260040161012291906102ce565b60405180910390fd5b60008054906101000a900473ffffffffffffffffffffffffffffffffffffffff1660008054906101000a900473ffffffffffffffffffffffffffffffffffffffff1673ffffffffffffffffffffffffffffffffffffffff1631915091509091565b60008054906101000a900473ffffffffffffffffffffffffffffffffffffffff1681565b600073ffffffffffffffffffffffffffffffffffffffff82169050919050565b60006101db826101b0565b9050919050565b6101eb816101d0565b82525050565b6000819050919050565b610204816101f1565b82525050565b600060408201905061021f60008301856101e2565b61022c60208301846101fb565b9392505050565b600061023e826101b0565b9050919050565b61024e81610233565b82525050565b60006020820190506102696000830184610245565b92915050565b6000819050919050565b600061029461028f61028a846101b0565b61026f565b6101b0565b9050919050565b60006102a682610279565b9050919050565b60006102b88261029b565b9050919050565b6102c8816102ad565b82525050565b60006020820190506102e360008301846102bf565b9291505056fea2646970667358221220a0ddd6dd6d9a4f45ccc6ddda8b0ea415cef474b621179ce7e2dbf4cc965cef7a64736f6c634300081c0033",
  "linkReferences": {},
  "deployedLinkReferences": {}
}